{
  "_format": "hh-sol-artifact-1",
  "contractName": "Farena",
  "sourceName": "contracts/NFTMarketplace.sol",
  "abi": [
    {
      "inputs": [],
      "stateMutability": "nonpayable",
      "type": "constructor"
    },
    {
      "anonymous": false,
      "inputs": [
        {
          "indexed": true,
          "internalType": "address",
          "name": "owner",
          "type": "address"
        },
        {
          "indexed": true,
          "internalType": "address",
          "name": "approved",
          "type": "address"
        },
        {
          "indexed": true,
          "internalType": "uint256",
          "name": "tokenId",
          "type": "uint256"
        }
      ],
      "name": "Approval",
      "type": "event"
    },
    {
      "anonymous": false,
      "inputs": [
        {
          "indexed": true,
          "internalType": "address",
          "name": "owner",
          "type": "address"
        },
        {
          "indexed": true,
          "internalType": "address",
          "name": "operator",
          "type": "address"
        },
        {
          "indexed": false,
          "internalType": "bool",
          "name": "approved",
          "type": "bool"
        }
      ],
      "name": "ApprovalForAll",
      "type": "event"
    },
    {
      "anonymous": false,
      "inputs": [
        {
          "indexed": false,
          "internalType": "uint256",
          "name": "_fromTokenId",
          "type": "uint256"
        },
        {
          "indexed": false,
          "internalType": "uint256",
          "name": "_toTokenId",
          "type": "uint256"
        }
      ],
      "name": "BatchMetadataUpdate",
      "type": "event"
    },
    {
      "anonymous": false,
      "inputs": [
        {
          "indexed": false,
          "internalType": "uint256",
          "name": "_tokenId",
          "type": "uint256"
        }
      ],
      "name": "MetadataUpdate",
      "type": "event"
    },
    {
      "anonymous": false,
      "inputs": [
        {
          "indexed": true,
          "internalType": "uint256",
          "name": "tokenId",
          "type": "uint256"
        },
        {
          "indexed": false,
          "internalType": "address",
          "name": "owner",
          "type": "address"
        },
        {
          "indexed": false,
          "internalType": "address",
          "name": "seller",
          "type": "address"
        },
        {
          "indexed": false,
          "internalType": "uint256",
          "name": "price",
          "type": "uint256"
        },
        {
          "indexed": false,
          "internalType": "bool",
          "name": "currentlyListed",
          "type": "bool"
        }
      ],
      "name": "TokenListedSuccess",
      "type": "event"
    },
    {
      "anonymous": false,
      "inputs": [
        {
          "indexed": true,
          "internalType": "uint256",
          "name": "tokenId",
          "type": "uint256"
        },
        {
          "indexed": true,
          "internalType": "address",
          "name": "seller",
          "type": "address"
        },
        {
          "indexed": true,
          "internalType": "address",
          "name": "newOwner",
          "type": "address"
        },
        {
          "indexed": false,
          "internalType": "uint256",
          "name": "price",
          "type": "uint256"
        }
      ],
      "name": "TokenSold",
      "type": "event"
    },
    {
      "anonymous": false,
      "inputs": [
        {
          "indexed": true,
          "internalType": "address",
          "name": "from",
          "type": "address"
        },
        {
          "indexed": true,
          "internalType": "address",
          "name": "to",
          "type": "address"
        },
        {
          "indexed": true,
          "internalType": "uint256",
          "name": "tokenId",
          "type": "uint256"
        }
      ],
      "name": "Transfer",
      "type": "event"
    },
    {
      "inputs": [
        {
          "internalType": "address",
          "name": "to",
          "type": "address"
        },
        {
          "internalType": "uint256",
          "name": "tokenId",
          "type": "uint256"
        }
      ],
      "name": "approve",
      "outputs": [],
      "stateMutability": "nonpayable",
      "type": "function"
    },
    {
      "inputs": [
        {
          "internalType": "address",
          "name": "owner",
          "type": "address"
        }
      ],
      "name": "balanceOf",
      "outputs": [
        {
          "internalType": "uint256",
          "name": "",
          "type": "uint256"
        }
      ],
      "stateMutability": "view",
      "type": "function"
    },
    {
      "inputs": [
        {
          "internalType": "uint256",
          "name": "tokenId",
          "type": "uint256"
        },
        {
          "internalType": "uint256",
          "name": "price",
          "type": "uint256"
        }
      ],
      "name": "createListedToken",
      "outputs": [],
      "stateMutability": "payable",
      "type": "function"
    },
    {
      "inputs": [
        {
          "internalType": "string",
          "name": "tokenURI",
          "type": "string"
        },
        {
          "internalType": "uint256",
          "name": "price",
          "type": "uint256"
        }
      ],
      "name": "createToken",
      "outputs": [
        {
          "internalType": "uint256",
          "name": "",
          "type": "uint256"
        }
      ],
      "stateMutability": "payable",
      "type": "function"
    },
    {
      "inputs": [
        {
          "internalType": "uint256",
          "name": "tokenId",
          "type": "uint256"
        }
      ],
      "name": "executeSale",
      "outputs": [],
      "stateMutability": "payable",
      "type": "function"
    },
    {
      "inputs": [],
      "name": "getAllNFTs",
      "outputs": [
        {
          "components": [
            {
              "internalType": "uint256",
              "name": "tokenId",
              "type": "uint256"
            },
            {
              "internalType": "address payable",
              "name": "owner",
              "type": "address"
            },
            {
              "internalType": "address payable",
              "name": "seller",
              "type": "address"
            },
            {
              "internalType": "uint256",
              "name": "price",
              "type": "uint256"
            },
            {
              "internalType": "bool",
              "name": "currentlyListed",
              "type": "bool"
            }
          ],
          "internalType": "struct Farena.ListedToken[]",
          "name": "",
          "type": "tuple[]"
        }
      ],
      "stateMutability": "view",
      "type": "function"
    },
    {
      "inputs": [
        {
          "internalType": "uint256",
          "name": "tokenId",
          "type": "uint256"
        }
      ],
      "name": "getApproved",
      "outputs": [
        {
          "internalType": "address",
          "name": "",
          "type": "address"
        }
      ],
      "stateMutability": "view",
      "type": "function"
    },
    {
      "inputs": [],
      "name": "getCurrentToken",
      "outputs": [
        {
          "internalType": "uint256",
          "name": "",
          "type": "uint256"
        }
      ],
      "stateMutability": "view",
      "type": "function"
    },
    {
      "inputs": [],
      "name": "getLatestIdToListedToken",
      "outputs": [
        {
          "components": [
            {
              "internalType": "uint256",
              "name": "tokenId",
              "type": "uint256"
            },
            {
              "internalType": "address payable",
              "name": "owner",
              "type": "address"
            },
            {
              "internalType": "address payable",
              "name": "seller",
              "type": "address"
            },
            {
              "internalType": "uint256",
              "name": "price",
              "type": "uint256"
            },
            {
              "internalType": "bool",
              "name": "currentlyListed",
              "type": "bool"
            }
          ],
          "internalType": "struct Farena.ListedToken",
          "name": "",
          "type": "tuple"
        }
      ],
      "stateMutability": "view",
      "type": "function"
    },
    {
      "inputs": [],
      "name": "getListPrice",
      "outputs": [
        {
          "internalType": "uint256",
          "name": "",
          "type": "uint256"
        }
      ],
      "stateMutability": "view",
      "type": "function"
    },
    {
      "inputs": [
        {
          "internalType": "uint256",
          "name": "tokenId",
          "type": "uint256"
        }
      ],
      "name": "getListedTokenForId",
      "outputs": [
        {
          "components": [
            {
              "internalType": "uint256",
              "name": "tokenId",
              "type": "uint256"
            },
            {
              "internalType": "address payable",
              "name": "owner",
              "type": "address"
            },
            {
              "internalType": "address payable",
              "name": "seller",
              "type": "address"
            },
            {
              "internalType": "uint256",
              "name": "price",
              "type": "uint256"
            },
            {
              "internalType": "bool",
              "name": "currentlyListed",
              "type": "bool"
            }
          ],
          "internalType": "struct Farena.ListedToken",
          "name": "",
          "type": "tuple"
        }
      ],
      "stateMutability": "view",
      "type": "function"
    },
    {
      "inputs": [],
      "name": "getMyNFTs",
      "outputs": [
        {
          "components": [
            {
              "internalType": "uint256",
              "name": "tokenId",
              "type": "uint256"
            },
            {
              "internalType": "address payable",
              "name": "owner",
              "type": "address"
            },
            {
              "internalType": "address payable",
              "name": "seller",
              "type": "address"
            },
            {
              "internalType": "uint256",
              "name": "price",
              "type": "uint256"
            },
            {
              "internalType": "bool",
              "name": "currentlyListed",
              "type": "bool"
            }
          ],
          "internalType": "struct Farena.ListedToken[]",
          "name": "",
          "type": "tuple[]"
        }
      ],
      "stateMutability": "view",
      "type": "function"
    },
    {
      "inputs": [
        {
          "internalType": "address",
          "name": "owner",
          "type": "address"
        },
        {
          "internalType": "address",
          "name": "operator",
          "type": "address"
        }
      ],
      "name": "isApprovedForAll",
      "outputs": [
        {
          "internalType": "bool",
          "name": "",
          "type": "bool"
        }
      ],
      "stateMutability": "view",
      "type": "function"
    },
    {
      "inputs": [],
      "name": "name",
      "outputs": [
        {
          "internalType": "string",
          "name": "",
          "type": "string"
        }
      ],
      "stateMutability": "view",
      "type": "function"
    },
    {
      "inputs": [
        {
          "internalType": "uint256",
          "name": "tokenId",
          "type": "uint256"
        }
      ],
      "name": "ownerOf",
      "outputs": [
        {
          "internalType": "address",
          "name": "",
          "type": "address"
        }
      ],
      "stateMutability": "view",
      "type": "function"
    },
    {
      "inputs": [
        {
          "internalType": "address",
          "name": "from",
          "type": "address"
        },
        {
          "internalType": "address",
          "name": "to",
          "type": "address"
        },
        {
          "internalType": "uint256",
          "name": "tokenId",
          "type": "uint256"
        }
      ],
      "name": "safeTransferFrom",
      "outputs": [],
      "stateMutability": "nonpayable",
      "type": "function"
    },
    {
      "inputs": [
        {
          "internalType": "address",
          "name": "from",
          "type": "address"
        },
        {
          "internalType": "address",
          "name": "to",
          "type": "address"
        },
        {
          "internalType": "uint256",
          "name": "tokenId",
          "type": "uint256"
        },
        {
          "internalType": "bytes",
          "name": "data",
          "type": "bytes"
        }
      ],
      "name": "safeTransferFrom",
      "outputs": [],
      "stateMutability": "nonpayable",
      "type": "function"
    },
    {
      "inputs": [
        {
          "internalType": "address",
          "name": "operator",
          "type": "address"
        },
        {
          "internalType": "bool",
          "name": "approved",
          "type": "bool"
        }
      ],
      "name": "setApprovalForAll",
      "outputs": [],
      "stateMutability": "nonpayable",
      "type": "function"
    },
    {
      "inputs": [
        {
          "internalType": "bytes4",
          "name": "interfaceId",
          "type": "bytes4"
        }
      ],
      "name": "supportsInterface",
      "outputs": [
        {
          "internalType": "bool",
          "name": "",
          "type": "bool"
        }
      ],
      "stateMutability": "view",
      "type": "function"
    },
    {
      "inputs": [],
      "name": "symbol",
      "outputs": [
        {
          "internalType": "string",
          "name": "",
          "type": "string"
        }
      ],
      "stateMutability": "view",
      "type": "function"
    },
    {
      "inputs": [
        {
          "internalType": "uint256",
          "name": "tokenId",
          "type": "uint256"
        }
      ],
      "name": "tokenURI",
      "outputs": [
        {
          "internalType": "string",
          "name": "",
          "type": "string"
        }
      ],
      "stateMutability": "view",
      "type": "function"
    },
    {
      "inputs": [
        {
          "internalType": "address",
          "name": "from",
          "type": "address"
        },
        {
          "internalType": "address",
          "name": "to",
          "type": "address"
        },
        {
          "internalType": "uint256",
          "name": "tokenId",
          "type": "uint256"
        }
      ],
      "name": "transferFrom",
      "outputs": [],
      "stateMutability": "nonpayable",
      "type": "function"
    },
    {
      "inputs": [
        {
          "internalType": "uint256",
          "name": "_listPrice",
          "type": "uint256"
        }
      ],
      "name": "updateListPrice",
      "outputs": [],
      "stateMutability": "payable",
      "type": "function"
    }
  ],
  "bytecode": "0x6080604052655af3107a4000600a553480156200001b57600080fd5b5060405180604001604052806006815260200165466172656e6160d01b815250604051806040016040528060038152602001622320a960e91b815250816000908162000068919062000139565b50600162000077828262000139565b5050600980546001600160a01b031916331790555062000205565b634e487b7160e01b600052604160045260246000fd5b600181811c90821680620000bd57607f821691505b602082108103620000de57634e487b7160e01b600052602260045260246000fd5b50919050565b601f82111562000134576000816000526020600020601f850160051c810160208610156200010f5750805b601f850160051c820191505b8181101562000130578281556001016200011b565b5050505b505050565b81516001600160401b0381111562000155576200015562000092565b6200016d81620001668454620000a8565b84620000e4565b602080601f831160018114620001a557600084156200018c5750858301515b600019600386901b1c1916600185901b17855562000130565b600085815260208120601f198616915b82811015620001d657888601518255948401946001909101908401620001b5565b5085821015620001f55787850151600019600388901b60f8161c191681555b5050505050600190811b01905550565b61223680620002156000396000f3fe6080604052600436106101405760003560e01c806372b3b620116100b6578063c322579c1161006f578063c322579c14610372578063c87b56dd14610385578063d1a88ae5146103a5578063e0391b09146103ba578063e985e9c5146103cf578063ef2d17461461041857600080fd5b806372b3b620146102ca5780638e264590146102dd57806395d89b411461030a5780639b1225c41461031f578063a22cb46514610332578063b88d4fde1461035257600080fd5b806342842e0e1161010857806342842e0e1461021657806355524f5614610236578063629cb2e4146102495780636352211e1461026b57806368f1945f1461028b57806370a08231146102aa57600080fd5b806301ffc9a71461014557806306fdde031461017a578063081812fc1461019c578063095ea7b3146101d457806323b872dd146101f6575b600080fd5b34801561015157600080fd5b50610165610160366004611b4e565b61042d565b60405190151581526020015b60405180910390f35b34801561018657600080fd5b5061018f610458565b6040516101719190611bbb565b3480156101a857600080fd5b506101bc6101b7366004611bce565b6104ea565b6040516001600160a01b039091168152602001610171565b3480156101e057600080fd5b506101f46101ef366004611c03565b610511565b005b34801561020257600080fd5b506101f4610211366004611c2d565b61062b565b34801561022257600080fd5b506101f4610231366004611c2d565b61065c565b6101f4610244366004611c69565b610677565b34801561025557600080fd5b5061025e610895565b6040516101719190611ccb565b34801561027757600080fd5b506101bc610286366004611bce565b610a3c565b34801561029757600080fd5b50600a545b604051908152602001610171565b3480156102b657600080fd5b5061029c6102c5366004611d19565b610a9c565b61029c6102d8366004611dc0565b610b22565b3480156102e957600080fd5b506102fd6102f8366004611bce565b610b64565b6040516101719190611e19565b34801561031657600080fd5b5061018f610bce565b6101f461032d366004611bce565b610bdd565b34801561033e57600080fd5b506101f461034d366004611e27565b610e1d565b34801561035e57600080fd5b506101f461036d366004611e63565b610e2c565b6101f4610380366004611bce565b610e64565b34801561039157600080fd5b5061018f6103a0366004611bce565b610ecf565b3480156103b157600080fd5b506102fd610fdf565b3480156103c657600080fd5b5061025e611056565b3480156103db57600080fd5b506101656103ea366004611edf565b6001600160a01b03918216600090815260056020908152604080832093909416825291909152205460ff1690565b34801561042457600080fd5b5061029c611175565b60006001600160e01b03198216632483248360e11b1480610452575061045282611185565b92915050565b60606000805461046790611f12565b80601f016020809104026020016040519081016040528092919081815260200182805461049390611f12565b80156104e05780601f106104b5576101008083540402835291602001916104e0565b820191906000526020600020905b8154815290600101906020018083116104c357829003601f168201915b5050505050905090565b60006104f5826111d5565b506000908152600460205260409020546001600160a01b031690565b600061051c82610a3c565b9050806001600160a01b0316836001600160a01b03160361058e5760405162461bcd60e51b815260206004820152602160248201527f4552433732313a20617070726f76616c20746f2063757272656e74206f776e656044820152603960f91b60648201526084015b60405180910390fd5b336001600160a01b03821614806105aa57506105aa81336103ea565b61061c5760405162461bcd60e51b815260206004820152603d60248201527f4552433732313a20617070726f76652063616c6c6572206973206e6f7420746f60448201527f6b656e206f776e6572206f7220617070726f76656420666f7220616c6c0000006064820152608401610585565b6106268383611237565b505050565b61063533826112a5565b6106515760405162461bcd60e51b815260040161058590611f4c565b610626838383611323565b61062683838360405180602001604052806000815250610e2c565b600a5434146106bf5760405162461bcd60e51b81526020600482015260146024820152734d75737420706179206c697374696e672066656560601b6044820152606401610585565b600081116107085760405162461bcd60e51b81526020600482015260166024820152755072696365206d75737420626520706f73697469766560501b6044820152606401610585565b3361071283610a3c565b6001600160a01b03161461075a5760405162461bcd60e51b815260206004820152600f60248201526e2737ba103a37b5b2b71037bbb732b960891b6044820152606401610585565b6000828152600b602052604090206004015460ff16156107ad5760405162461bcd60e51b815260206004820152600e60248201526d105b1c9958591e481b1a5cdd195960921b6044820152606401610585565b6040805160a0810182528381523360208083018281528385018381526060850187815260016080870181815260008b8152600b9096529790942095518655915192850180546001600160a01b039485166001600160a01b03199182161790915590516002860180549190941691161790915551600383015591516004909101805491151560ff19909216919091179055610848903084611323565b604080513380825260208201529081018290526001606082015282907f9339409317fd01fabff48b703019016f49159bacc801ae872d2ca637d226e4c09060800160405180910390a25050565b606060006108a260075490565b905060008080805b848110156108fa5733600b60006108c2846001611f99565b81526020810191909152604001600020600101546001600160a01b0316036108f2576108ef600185611f99565b93505b6001016108aa565b5060008367ffffffffffffffff81111561091657610916611d34565b60405190808252806020026020018201604052801561094f57816020015b61093c611b0a565b8152602001906001900390816109345790505b50905060005b85811015610a325733600b600061096d846001611f99565b81526020810191909152604001600020600101546001600160a01b031603610a2a5761099a816001611f99565b6000818152600b6020908152604091829020825160a0810184528154815260018201546001600160a01b039081169382019390935260028201549092169282019290925260038201546060820152600482015460ff161515608082015284519295509091849087908110610a1057610a10611fba565b6020908102919091010152610a26600186611f99565b9450505b600101610955565b5095945050505050565b6000818152600260205260408120546001600160a01b0316806104525760405162461bcd60e51b8152602060048201526018602482015277115490cdcc8c4e881a5b9d985b1a59081d1bdad95b88125160421b6044820152606401610585565b60006001600160a01b038216610b065760405162461bcd60e51b815260206004820152602960248201527f4552433732313a2061646472657373207a65726f206973206e6f7420612076616044820152683634b21037bbb732b960b91b6064820152608401610585565b506001600160a01b031660009081526003602052604090205490565b6000610b32600780546001019055565b6000610b3d60075490565b9050610b493382611487565b610b5381856114a1565b610b5d8184610677565b9392505050565b610b6c611b0a565b506000908152600b6020908152604091829020825160a0810184528154815260018201546001600160a01b03908116938201939093526002820154909216928201929092526003820154606082015260049091015460ff161515608082015290565b60606001805461046790611f12565b6000818152600b60205260409020600481015460ff16610c325760405162461bcd60e51b815260206004820152601060248201526f151bdad95b881b9bdd081b1a5cdd195960821b6044820152606401610585565b80600301543414610c795760405162461bcd60e51b8152602060048201526011602482015270125b98dbdc9c9958dd081c185e5b595b9d607a1b6044820152606401610585565b60028101546001600160a01b03163303610cc95760405162461bcd60e51b815260206004820152601160248201527053656c6c65722063616e6e6f742062757960781b6044820152606401610585565b6001810180546001600160a01b03198082163390811790935560048401805460ff191690556002840180549091169092179091556001600160a01b0316610d14600880546001019055565b610d1f303385611323565b600954600a546040516001600160a01b039092169181156108fc0291906000818181858888f19350505050158015610d5b573d6000803e3d6000fd5b506040516001600160a01b038216903480156108fc02916000818181858888f19350505050158015610d91573d6000803e3d6000fd5b50336001600160a01b0316816001600160a01b0316847f3d5eb834b5d6cadc063c171c3f25f60bca8ea892ba9db25342278927d0af955634604051610dd891815260200190565b60405180910390a4604051839033906001600160a01b038416907fddf252ad1be2c89b69c2b068fc378daa952ba7f163c4a11628f55a4df523b3ef90600090a4505050565b610e2833838361156c565b5050565b610e3633836112a5565b610e525760405162461bcd60e51b815260040161058590611f4c565b610e5e8484848461163a565b50505050565b6009546001600160a01b03163314610eca5760405162461bcd60e51b815260206004820152602360248201527f4f6e6c79206f776e65722063616e20757064617465206c697374696e6720707260448201526269636560e81b6064820152608401610585565b600a55565b6060610eda826111d5565b60008281526006602052604081208054610ef390611f12565b80601f0160208091040260200160405190810160405280929190818152602001828054610f1f90611f12565b8015610f6c5780601f10610f4157610100808354040283529160200191610f6c565b820191906000526020600020905b815481529060010190602001808311610f4f57829003601f168201915b505050505090506000610f8a60408051602081019091526000815290565b90508051600003610f9c575092915050565b815115610fce578082604051602001610fb6929190611fd0565b60405160208183030381529060405292505050919050565b610fd78461166d565b949350505050565b610fe7611b0a565b6000610ff260075490565b6000908152600b6020908152604091829020825160a0810184528154815260018201546001600160a01b03908116938201939093526002820154909216928201929092526003820154606082015260049091015460ff161515608082015292915050565b6060600061106360075490565b905060008167ffffffffffffffff81111561108057611080611d34565b6040519080825280602002602001820160405280156110b957816020015b6110a6611b0a565b81526020019060019003908161109e5790505b509050600080805b8481101561116b576110d4816001611f99565b6000818152600b6020908152604091829020825160a0810184528154815260018201546001600160a01b039081169382019390935260028201549092169282019290925260038201546060820152600482015460ff16151560808201528651929450909186908690811061114a5761114a611fba565b6020908102919091010152611160600185611f99565b9350506001016110c1565b5091949350505050565b600061118060075490565b905090565b60006001600160e01b031982166380ac58cd60e01b14806111b657506001600160e01b03198216635b5e139f60e01b145b8061045257506301ffc9a760e01b6001600160e01b0319831614610452565b6000818152600260205260409020546001600160a01b03166112345760405162461bcd60e51b8152602060048201526018602482015277115490cdcc8c4e881a5b9d985b1a59081d1bdad95b88125160421b6044820152606401610585565b50565b600081815260046020526040902080546001600160a01b0319166001600160a01b038416908117909155819061126c82610a3c565b6001600160a01b03167f8c5be1e5ebec7d5bd14f71427d1e84f3dd0314c0f7b2291e5b200ac8c7c3b92560405160405180910390a45050565b6000806112b183610a3c565b9050806001600160a01b0316846001600160a01b031614806112f857506001600160a01b0380821660009081526005602090815260408083209388168352929052205460ff165b80610fd75750836001600160a01b0316611311846104ea565b6001600160a01b031614949350505050565b826001600160a01b031661133682610a3c565b6001600160a01b03161461135c5760405162461bcd60e51b815260040161058590611fff565b6001600160a01b0382166113be5760405162461bcd60e51b8152602060048201526024808201527f4552433732313a207472616e7366657220746f20746865207a65726f206164646044820152637265737360e01b6064820152608401610585565b826001600160a01b03166113d182610a3c565b6001600160a01b0316146113f75760405162461bcd60e51b815260040161058590611fff565b600081815260046020908152604080832080546001600160a01b03199081169091556001600160a01b0387811680865260038552838620805460001901905590871680865283862080546001019055868652600290945282852080549092168417909155905184937fddf252ad1be2c89b69c2b068fc378daa952ba7f163c4a11628f55a4df523b3ef91a4505050565b610e288282604051806020016040528060008152506116e0565b6000828152600260205260409020546001600160a01b031661151c5760405162461bcd60e51b815260206004820152602e60248201527f45524337323155524953746f726167653a2055524920736574206f66206e6f6e60448201526d32bc34b9ba32b73a103a37b5b2b760911b6064820152608401610585565b60008281526006602052604090206115348282612094565b506040518281527ff8e1a15aba9398e019f0b49df1a4fde98ee17ae345cb5f6b5e2c27f5033e8ce79060200160405180910390a15050565b816001600160a01b0316836001600160a01b0316036115cd5760405162461bcd60e51b815260206004820152601960248201527f4552433732313a20617070726f766520746f2063616c6c6572000000000000006044820152606401610585565b6001600160a01b03838116600081815260056020908152604080832094871680845294825291829020805460ff191686151590811790915591519182527f17307eab39ab6107e8899845ad3d59bd9653f200f220920489ca2b5937696c31910160405180910390a3505050565b611645848484611323565b61165184848484611713565b610e5e5760405162461bcd60e51b815260040161058590612154565b6060611678826111d5565b600061168f60408051602081019091526000815290565b905060008151116116af5760405180602001604052806000815250610b5d565b806116b984611814565b6040516020016116ca929190611fd0565b6040516020818303038152906040529392505050565b6116ea83836118a7565b6116f76000848484611713565b6106265760405162461bcd60e51b815260040161058590612154565b60006001600160a01b0384163b1561180957604051630a85bd0160e11b81526001600160a01b0385169063150b7a02906117579033908990889088906004016121a6565b6020604051808303816000875af1925050508015611792575060408051601f3d908101601f1916820190925261178f918101906121e3565b60015b6117ef573d8080156117c0576040519150601f19603f3d011682016040523d82523d6000602084013e6117c5565b606091505b5080516000036117e75760405162461bcd60e51b815260040161058590612154565b805181602001fd5b6001600160e01b031916630a85bd0160e11b149050610fd7565b506001949350505050565b6060600061182183611a32565b600101905060008167ffffffffffffffff81111561184157611841611d34565b6040519080825280601f01601f19166020018201604052801561186b576020820181803683370190505b5090508181016020015b600019016f181899199a1a9b1b9c1cb0b131b232b360811b600a86061a8153600a850494508461187557509392505050565b6001600160a01b0382166118fd5760405162461bcd60e51b815260206004820181905260248201527f4552433732313a206d696e7420746f20746865207a65726f20616464726573736044820152606401610585565b6000818152600260205260409020546001600160a01b0316156119625760405162461bcd60e51b815260206004820152601c60248201527f4552433732313a20746f6b656e20616c7265616479206d696e746564000000006044820152606401610585565b6000818152600260205260409020546001600160a01b0316156119c75760405162461bcd60e51b815260206004820152601c60248201527f4552433732313a20746f6b656e20616c7265616479206d696e746564000000006044820152606401610585565b6001600160a01b038216600081815260036020908152604080832080546001019055848352600290915280822080546001600160a01b0319168417905551839291907fddf252ad1be2c89b69c2b068fc378daa952ba7f163c4a11628f55a4df523b3ef908290a45050565b60008072184f03e93ff9f4daa797ed6e38ed64bf6a1f0160401b8310611a715772184f03e93ff9f4daa797ed6e38ed64bf6a1f0160401b830492506040015b6d04ee2d6d415b85acef81000000008310611a9d576d04ee2d6d415b85acef8100000000830492506020015b662386f26fc100008310611abb57662386f26fc10000830492506010015b6305f5e1008310611ad3576305f5e100830492506008015b6127108310611ae757612710830492506004015b60648310611af9576064830492506002015b600a83106104525760010192915050565b6040805160a08101825260008082526020820181905291810182905260608101829052608081019190915290565b6001600160e01b03198116811461123457600080fd5b600060208284031215611b6057600080fd5b8135610b5d81611b38565b60005b83811015611b86578181015183820152602001611b6e565b50506000910152565b60008151808452611ba7816020860160208601611b6b565b601f01601f19169290920160200192915050565b602081526000610b5d6020830184611b8f565b600060208284031215611be057600080fd5b5035919050565b80356001600160a01b0381168114611bfe57600080fd5b919050565b60008060408385031215611c1657600080fd5b611c1f83611be7565b946020939093013593505050565b600080600060608486031215611c4257600080fd5b611c4b84611be7565b9250611c5960208501611be7565b9150604084013590509250925092565b60008060408385031215611c7c57600080fd5b50508035926020909101359150565b805182526020808201516001600160a01b039081169184019190915260408083015190911690830152606080820151908301526080908101511515910152565b6020808252825182820181905260009190848201906040850190845b81811015611d0d57611cfa838551611c8b565b9284019260a09290920191600101611ce7565b50909695505050505050565b600060208284031215611d2b57600080fd5b610b5d82611be7565b634e487b7160e01b600052604160045260246000fd5b600067ffffffffffffffff80841115611d6557611d65611d34565b604051601f8501601f19908116603f01168101908282118183101715611d8d57611d8d611d34565b81604052809350858152868686011115611da657600080fd5b858560208301376000602087830101525050509392505050565b60008060408385031215611dd357600080fd5b823567ffffffffffffffff811115611dea57600080fd5b8301601f81018513611dfb57600080fd5b611e0a85823560208401611d4a565b95602094909401359450505050565b60a081016104528284611c8b565b60008060408385031215611e3a57600080fd5b611e4383611be7565b915060208301358015158114611e5857600080fd5b809150509250929050565b60008060008060808587031215611e7957600080fd5b611e8285611be7565b9350611e9060208601611be7565b925060408501359150606085013567ffffffffffffffff811115611eb357600080fd5b8501601f81018713611ec457600080fd5b611ed387823560208401611d4a565b91505092959194509250565b60008060408385031215611ef257600080fd5b611efb83611be7565b9150611f0960208401611be7565b90509250929050565b600181811c90821680611f2657607f821691505b602082108103611f4657634e487b7160e01b600052602260045260246000fd5b50919050565b6020808252602d908201527f4552433732313a2063616c6c6572206973206e6f7420746f6b656e206f776e6560408201526c1c881bdc88185c1c1c9bdd9959609a1b606082015260800190565b8082018082111561045257634e487b7160e01b600052601160045260246000fd5b634e487b7160e01b600052603260045260246000fd5b60008351611fe2818460208801611b6b565b835190830190611ff6818360208801611b6b565b01949350505050565b60208082526025908201527f4552433732313a207472616e736665722066726f6d20696e636f72726563742060408201526437bbb732b960d91b606082015260800190565b601f821115610626576000816000526020600020601f850160051c8101602086101561206d5750805b601f850160051c820191505b8181101561208c57828155600101612079565b505050505050565b815167ffffffffffffffff8111156120ae576120ae611d34565b6120c2816120bc8454611f12565b84612044565b602080601f8311600181146120f757600084156120df5750858301515b600019600386901b1c1916600185901b17855561208c565b600085815260208120601f198616915b8281101561212657888601518255948401946001909101908401612107565b50858210156121445787850151600019600388901b60f8161c191681555b5050505050600190811b01905550565b60208082526032908201527f4552433732313a207472616e7366657220746f206e6f6e20455243373231526560408201527131b2b4bb32b91034b6b83632b6b2b73a32b960711b606082015260800190565b6001600160a01b03858116825284166020820152604081018390526080606082018190526000906121d990830184611b8f565b9695505050505050565b6000602082840312156121f557600080fd5b8151610b5d81611b3856fea264697066735822122004d245e87d4ee01488b45b2f09ce52ee5c416c6773224931ccf4f4c09b34dd8b64736f6c63430008180033",
  "linkReferences": {},
  "deployedLinkReferences": {}
}